:020000040800F2
:10000000681C012079020008BF5800084722000838
:10001000BD580008850700085D5E0008000000006C
:1000200000000000000000000000000079590008F6
:10003000B908000800000000C15800087B590008FA
:10004000930200089302000893020008930200083C
:10005000930200089302000893020008930200082C
:10006000930200089302000893020008930200081C
:10007000930200089302000893020008930200080C
:1000800093020008930200089302000893020008FC
:1000900093020008930200089302000893020008EC
:1000A00093020008930200089302000893020008DC
:1000B0009302000893020008915900089302000877
:1000C00093020008930200089302000893020008BC
:1000D00093020008195E00089302000893020008CA
:1000E000930200089302000893020008930200089C
:1000F000930200089302000893020008930200088C
:10010000930200089302000893020008930200087B
:10011000930200089302000893020008930200086B
:10012000930200089302000893020008930200085B
:10013000930200089302000893020008930200084B
:10014000930200089302000893020008930200083B
:10015000930200089302000893020008930200082B
:10016000930200089302000893020008930200081B
:1001700093020008930200089302000800000000A8
:10018000930200089302000800F002F800F064F8FF
:100190000AA090E8000C82448344AAF10107DA45E2
:1001A00001D100F059F8AFF2090EBAE80F0013F0D0
:1001B000010F18BFFB1A43F001031847184C030046
:1001C000384C03000A444FF0000C10F8013B13F0C8
:1001D000070408BF10F8014B1D1108BF10F8015BA0
:1001E000641E05D010F8016B641E01F8016BF9D193
:1001F00013F0080F1EBF10F8014BAD1C0C1B09D1EA
:100200006D1E58BF01F801CBFAD505E014F8016B5B
:1002100001F8016B6D1EF9D59142D6D370470000ED
:100220000023002400250026103A28BF78C1FBD8FF
:10023000520728BF30C148BF0B607047782900F0D3
:100240001D81732900F03982002070471FB530F0FE
:1002500045FA1FBD10B510BD00F062FA1146FFF758
:10026000F5FF2BF071FA00F080FA03B4FFF7F2FF0C
:1002700003BC08F041F800000948804709480047DE
:10028000FEE7FEE7FEE7FEE7FEE7FEE7FEE7FEE746
:10029000FEE7FEE704480549054A064B70470000A3
:1002A000815900088901000868FA0020681C0120B3
:1002B00068FC002068FC0020704753EA020C00F044
:1002C00069802DE9F04B4FF00006002B1FBFB3FAF9
:1002D00083F503FA05F424FA05F65E4012BF1643CF
:1002E000B2FA82F502FA05F4C5F120051EBF22FA22
:1002F00005FC44EA0C04203556EA044C4FEA144449
:1003000018BF641C4FF000084FF00009904271EBD9
:10031000030C39D3002919BFB1FA81F701FA07F6A6
:10032000B0FA80F700FA07F6C7F120071EBF20FADF
:1003300007FC46EA0C062037B6FBF4FCA7EB0507E2
:10034000103F07F01F0BCBF120060CFA0BFB2CFA29
:1003500006F644BFB3460026202FA4BF5E464FF0EA
:10036000000B5BEA060C08BF4FF0010B19EB0B0901
:10037000ABFB027C48EB0608C01B06FB02CC0BFB68
:1003800003CC71EB0C01C1E70B46024641464846DF
:10039000BDE8F08B13B54FF000004FF00001AFF354
:1003A0000080BDE81C4070470FB4044910B503AA93
:1003B000029800F087F910BC5DF814FB2C000020B7
:1003C0002DE9F0410E460446002020622046E168F7
:1003D000884730B3252805D0D4E901219047206A09
:1003E000401CF2E7E168204600278847050018D046
:1003F000A5F14100192802D820354FF40067324694
:10040000294620462760FFF719FF40B1012804D094
:10041000F61D26F007060836D8E7361DD6E728462B
:10042000DAE7206ABDE8F08170B50C460546012A7E
:1004300005D02878800600D5EA69002302E0012370
:1004400005E05B1C934202D2E05C0028F9D1A86968
:10045000E618C01AA861286A184428622846AFF333
:10046000008004E0D5E9012114F8010B9047B44263
:10047000F8D32846AFF3008070BD000070B5044685
:100480000D4621461068AFF300802188090502D58A
:100490000F4A7A4402E00E4A7A440E32002104F1F7
:1004A000240305E000F00F060009965D5E54491C28
:1004B0000028F7D120780023000704D5702D02D042
:1004C00009B1022311322046BDE8704000F08AB81D
:1004D0003A44030040EA0103024630B59B0710D1BD
:1004E0004FF0013400E008C208C91D1B9D4315EA06
:1004F000C41FF8D013F0FF0102F8011B0DD01B0A36
:10050000F8E711F8013B002B02F8013B05D011F888
:10051000013B002B02F8013BF3D130BD10B5431C69
:1005200002E010F8011B71B18107FAD14FF00132DE
:1005300002C88C1A8C4314EAC211F9D0C01A0A06F8
:1005400003D0C01E10BDC01A10BD0A0401D0801E09
:1005500010BD0902FCD0401E10BD00004FF0013C50
:1005600050F8042B51F8043B9A4221D1A2EB0C0322
:10057000934313EACC1317D150F8042B51F8043BE2
:100580009A4215D1A2EB0C03934313EACC130BD17F
:1005900050F8042B51F8043B9A4209D1A2EB0C030A
:1005A000934313EACC13DBD04FF00000704700BF39
:1005B000D01A01BAB1FA81F101F0180122FA01F062
:1005C000CB40C1F12001DBB2C0B2C01A2CFA01F35A
:1005D000D11A914311EAC311E6D1704770477047B1
:1005E000704770472DE9F0470D46994692460446FC
:1005F00000F124080168880604D5E06921F01001A3
:10060000216000E00120A84201DD471B00E0002737
:10061000A1697A1902EB0900081AA0612078C006C6
:1006200002D42046AFF30080002608E0D4E901217F
:100630001AF806009047206A401C761C20624E453E
:10064000F4DB2078C0060AD52046AFF3008006E030
:10065000D4E9012130209047206A401C2062381ED6
:10066000A7F10107F4DC07E0D4E9012118F805003F
:100670009047206A401C2062281EA5F10105F3DC8A
:100680002046AFF300802078000602D50220BDE8A6
:10069000F0870120FBE710B5436913B1AFF3008089
:1006A00001E0FFF7C1FE012010BD127800F1240126
:1006B0000A7000224A700122EDE711684FF0FF3204
:1006C000E9E70000074B70B50D467B4400F011F8D8
:1006D0000446284600F020F810B14FF0FF3070BDFE
:1006E000204670BDEBD3000001694A1C0261087806
:1006F000704700B58FB0CDE9013100210591054962
:100700007944CDE9031011466846FFF759FE0FB052
:1007100000BD0000E5FFFFFF007B00F08000704798
:10072000754600F02BF8AE4605006946534620F0AA
:100730000700854618B020B5FFF7ACFDBDE82040A6
:100740004FF000064FF000074FF000084FF0000B8D
:1007500021F00701AC46ACE8C009ACE8C009ACE840
:10076000C009ACE8C0098D46704710B50446AFF328
:1007700000802046BDE81040FFF777BD0048704775
:1007800004FA0020FEE700000F4810B5016886B0AB
:1007900041F00201016000680C4C00F0020005907D
:1007A0004FF400400090012001900290032003903C
:1007B0006946204600F018FBA014009069462046C8
:1007C00000F012FB06B010BD3038024000040240B9
:1007D0002DE9F04106461548016821F0407101609D
:1007E000016841F080710160114C4FF00008C4F8BD
:1007F000BC82022008F014FD00250127F009C4F88E
:10080000B0027006060E022008F00AFDC4F8BC72A1
:10081000022008F005FDC4F8BC82022008F000FDAB
:10082000681CC5B2082DE9D3BDE8F0810004024080
:10083000008040422DE9F0411D4E0024306820F038
:1008400040703060306830601A4D0127C5F8B072D2
:10085000C5F8BC72022008F0E3FCD5F83002A046CF
:1008600008B3601CC4B2FA2C16D9306820F040706E
:100870003060306840F080703060C5F8BC721E2077
:1008800008F0CEFCC5F8B082022008F0C9FCC5F81B
:10089000B0720120BDE8F081022008F0C1FCD5F85B
:1008A00030020028DDD1C5F8BC820020BDE8F0810F
:1008B00000040240008040427047000030B4B3F5AD
:1008C000804F18BF6FF0704105D000BF40F8221074
:1008D00030BC0020704750F82230DFF828C08D89E6
:1008E00003EA0C03D1E900C44CEA041C8C68896952
:1008F000240244EA05444CEA040C4CEA0101194381
:10090000E4E700000000F0CF70B40B6850F823203B
:10091000DFF84CC0D1E9035602EA0C0CD1E90142E0
:10092000144335432C434D692C438D692C43CD69C9
:100930002C430D6A2C434D6A2C438D6A2C43CD6A9F
:100940002C43CD6B096B2C43214341EA0C01082A4F
:1009500008BF41F0400140F8231070BC00207047F0
:100960008000F0FF10B400EB82004268D1E9003C47
:1009700043EA0C13D1F808C08C894FEA0C2C4CEADE
:10098000044C43EA0C03B1F810C00A4C02F0404298
:1009900004EB0C5C43EA0C0391F814C0640104EB13
:1009A0000C6C896943EA0C0319431143416010BC84
:1009B000002070470000F0FFF8B5124C00254FF6FC
:1009C000FF7600BF94F82100002804BFA681E682CC
:1009D00013D00422694648F2501000F0C1F89DF887
:1009E00000009DF8011000EB0120A0819DF802009D
:1009F0009DF8031000EB0120E082681C10F0FF0559
:100A0000E0D0F8BD300000202DE9F0413A483B49E4
:100A100088B000244460897901F0010141F080012F
:100A200080F830103648016841F00201016000682A
:100A3000012500F0020007904FF4005003268DE8D6
:100A40007100DFF8C0806946404600F0CDF9A80388
:100A5000CDE900056946404600F0C6F9FFF794FE6F
:100A6000294FC7F8B8420A2007F52E7708F0B4FBE3
:100A70003D600A2008F0B0FB022700970396CDE9FD
:100A800001546946404600F0AFF9642008F0A4FB29
:100A9000042205A948F2401000F062F88DF81840D1
:100AA00005A91AA0FFF780FC1BA105A8FFF756FDBA
:100AB00000281EBF012008B0BDE8F0818DF8147039
:100AC000012205A948F2400000F01AF9012205A907
:100AD00048F2500000F044F80A2008F07DFB8DF841
:100AE0001440012205A948F2400000F009F908B0BD
:100AF0000020BDE8F081000030000020200400202C
:100B000030380240000402400080404243545020EC
:100B100049443A25730D0A00313135380000000090
:100B200038B50122694648F24E1000F019F89DF8D8
:100B300000000A4C00F00F00012284F82100002080
:100B40008DF80000694648F24E1000F0D9F894F88C
:100B50002100002818BF012038BD0000300000200F
:100B60002DE9F74F644F054682B0386820F0407099
:100B70003860386840F080703860604C4FF0010990
:100B8000C4F8B092C4F8BC921E2008F049FB4FF0A4
:100B90000008C4F8B082022008F042FBC4F8BC820E
:100BA0002820FFF715FEFFF745FE280AFFF710FE85
:100BB000FFF740FEE8B2FFF70BFEFFF73BFE386899
:100BC00020F040703860386840F080703860C4F8B9
:100BD000B092C4F8BC921E2008F022FBC4F8B08288
:100BE000022008F01DFBC4F8BC822920FFF7F0FDAD
:100BF000FFF720FE04984FF0000A002884BF401E33
:100C0000009053D9824514BF4FF0010B4FF0000BF9
:100C10000025386820F040703860386838601E2041
:100C200008F0FEFA5FF00006C4F8BC82022008F06B
:100C3000F7FAC4F8BC926806050E022008F0F0FA34
:100C4000D4F8300200281CBF681CC5B2022008F08E
:100C5000E7FA701CC6B2082EE6D3BBF1000FC4F849
:100C6000BC82386820F040703860386840F080708E
:100C700038604FF0020030D008F0D2FAC4F8B082E9
:100C8000022008F0CDFAC4F8BC92022008F0C8FA9D
:100C9000C4F8BC82039800F80A500AF1010000F081
:100CA000FF0A0498824538BF0098ABD3386820F01B
:100CB00040703860386840F080703860C4F8BC928A
:100CC0001E2008F0ADFAC4F8B082022008F0A8FA9D
:100CD000C4F8B09205B0BDE8F08F08F0A1FAC4F8EE
:100CE000B092022008F09CFAC4F8BC92022008F0EE
:100CF00097FAC4F8BC82CDE700040240008040426D
:100D00002DE9F05F2D4E8246914630688B460025D6
:100D100020F040703060306840F080703060284CC7
:100D20000127C4F8B072C4F8BC721E2008F078FA2B
:100D30004FF00008C4F8B082022008F071FAC4F83D
:100D4000BC822820FFF744FDFFF774FD4FEA1A200C
:100D5000FFF73EFDFFF76EFD0AF0FF00FFF738FDDD
:100D6000FFF768FD4FF0000AB9F1000F0ED900BF80
:100D70001BF80A00FFF72CFDFFF75CFD050005D10D
:100D80000AF1010000F0FF0ACA45F1D3306820F0F3
:100D900040703060306840F080703060C4F8BC72E1
:100DA0001E2008F03DFAC4F8B082022008F038FA9C
:100DB000C4F8B0722846BDE8F09F0000000402406D
:100DC0000080404290F83510022903D0802141650F
:100DD00001207047052180F835100068016821F076
:100DE00001010160002070472DE9F84F0022884E74
:100DF000DFF820E201274FF0030A4FF00F0800BF91
:100E00000B6807FA02F42340A34240F0FB80D1F8BC
:100E100004C0BCF1020F18BFBCF1120F15D14FEA8C
:100E2000D20C00EB8C0CDCF820504FEA42794FEAF0
:100E3000D96908FA09FB25EA0B05D1F810B00BFABD
:100E400009F949EA0505CCF82050D0F800904FEA9E
:100E5000420C91F804B00AFA0CF50BF0030B29EAE6
:100E600005090BFA0CFB4BEA0909C0F80090D1F810
:100E70000490B9F1010F18BFB9F1020F05D0B9F113
:100E8000110F18BFB9F1120F18D1D0F80890D1F88E
:100E90000CB029EA05090BFA0CFB4BEA0909C0F86A
:100EA0000890D0F8049029EA040491F80490C9F35A
:100EB000001909FA02F949EA04044460C46824EA02
:100EC00005048D6805FA0CFC4CEA040CC0F80CC053
:100ED000D1F804C01CF0805F7ED0D6F800C04CF47E
:100EE000804CC6F800C0D6F800C00CF4804CCDF899
:100EF00000C022F0030C0CF1804505F59835D5F8BB
:100F000008C84FEA82744FEA147408FA04F92CEA0C
:100F1000090CA0F18049B9F5003938D0A0F1804919
:100F2000B9F5013908BF4FF0010930D0A0F180496F
:100F3000B9F5023908BF4FF0020928D0A0F1804965
:100F4000B9F5033908BF4FF0030920D0A0F180495B
:100F5000B9F5043908BF4FF0040918D0A0F1804951
:100F6000B9F5053908BF4FF0050910D0A0F1804947
:100F7000B9F5063908BF4FF0060908D0A0F180493D
:100F8000B9F507390CBF4FF007094FF0080909FA06
:100F900004F444EA0C0CC5F808C8DEF800C04C683C
:100FA0002CEA030C14F4803F18BF4CEA030CCEF873
:100FB00000C0194CD4F800C04D682CEA030C15F49D
:100FC000003F18BF4CEA030CC4F800C0134CD4F81F
:100FD00000C02CEA030C00E014E04D6815F4801FFB
:100FE00018BF4CEA030CC4F800C00D4CD4F800C084
:100FF0004D682CEA030C15F4001F18BF4CEA030CD3
:10100000C4F800C0521C102AFFF4FAAEBDE8F88FF5
:1010100044380240003C0140043C0140083C01408F
:101020000C3C014001480068000C7047002004E0BF
:101030000148006870470000200000200248016855
:10104000491C01607047000020000020094810B5CD
:10105000016841F400710160016841F48061016040
:10106000052000F05DF80F2000F006F800F018F8F9
:10107000002010BD003C024010B5044607484FF464
:101080007A720068B0FBF2F000F012FC00222146F8
:10109000501E00F013F8002010BD000000000020DA
:1010A000704700F01F01012202FA01F1400980009F
:1010B00000F1E020C0F8001170470000174B10B499
:1010C0001B68C3F30223C3F1070CBCF1040F88BFF4
:1010D0004FF0040C1C1D072C34BF0023DB1E012421
:1010E00004FA0CFCACF1010C0CEA0101994004FA81
:1010F00003F35B1E1A40114300284FEA0111A1BF00
:1011000000F1E02080F8001410BC704700F00F00E0
:1011100000F1E02080F8141D10BC70470CED00E0D9
:10112000074900F007000A684FF6FF031A4042EA39
:10113000002040F0FD7040F08060086070470000C3
:101140000CED00E02DE9F05F5F4F064689463868F8
:1011500001F0FF0A00F00700484506D287F800A01A
:10116000386800F00700484540D13078574D10F0FE
:10117000020F05D02868B16820F0F000084328600D
:10118000307810F0010F65D070685149012825D0E2
:10119000022818BF0328096825D011F0020F65D076
:1011A000296821F0030141EA00002860FFF740FFB1
:1011B0000446706841F28838012818D0022826D0E9
:1011C0000328286833D010F00C0F43D0FFF730FF0E
:1011D000001B40453AD90320BDE8F09F096811F48F
:1011E000003FDDD142E011F0007FD9D13EE0286818
:1011F00000F00C0004282DD0FFF71AFF001B40451B
:10120000E9D8286800F00C000428F5D122E028680D
:1012100000F00C0008281DD0FFF70AFF001B404516
:10122000D9D8286800F00C000828F5D112E04FF05A
:101230000C0B3BEA00000DD0FFF7FAFE001B404507
:10124000C9D828683BEA0000F6D103E0286810F00E
:101250000C0FBBD1386800F00700814509D287F830
:1012600000A0386800F00700484502D00120BDE822
:10127000F09F307810F0040F05D02868F16820F452
:10128000E05008432860307810F0080F06D0286836
:10129000316920F4604040EAC100286000F04EF857
:1012A0002968F02292FAA2F201F0F001B2FA82F279
:1012B000D140084A515CC840074908600F20FFF739
:1012C000DBFE0020BDE8F09F003C024008380240F1
:1012D00000380240E60603080000002008480949DB
:1012E000006809684FF4E05292FAA2F201F4E0516A
:1012F000B2FA82F2D140044A515CC8407047000003
:101300000000002008380240F60603080848094992
:10131000006809684FF4604292FAA2F201F4604159
:10132000B2FA82F2D140044A515CC84070470000D2
:101330000000002008380240F60603082048006834
:1013400010F00C011F4808BF7047DFF87CC004296B
:1013500004BF60467047082918BF704710B41B4B84
:10136000196801F03F02196811F4800F47F6C07147
:101370000BD0BCFBF2F01A680A4091FAA1F1B1FA65
:1013800081F122FA01F148430AE0B0FBF2F01A6859
:101390000A4091FAA1F1B1FA81F122FA01F1484330
:1013A00019684FF4403292FAA2F201F44031B2FAD5
:1013B00082F2D140491C4900B0FBF1F010BC7047EB
:1013C000083802400024F40000127A000438024079
:1013D0002DE9F84F04460078E34FE44D10F0010F7B
:1013E00058D0386800F00C0004280AD0386800F0A3
:1013F0000C0008280ED105F10400006810F4800FDD
:1014000008D0286810F4003F44D06068002800F03D
:10141000A8813FE06068B0F5803F19D0B0F5A02FFB
:1014200028680CBF40F4802020F4803028602868B1
:101430000CBF40F4803020F4802028606068B8B190
:10144000FFF7F6FD0646286810F4003F05D021E0BE
:10145000286840F480302860F0E7FFF7E9FD801B42
:10146000642800F22881286810F4003FF5D011E0CC
:10147000FFF7DEFD0646286810F4003F0AD000BFE3
:10148000FFF7D6FD801B642800F21581286810F450
:10149000003FF5D12078DFF8D88210F0020F4FF02E
:1014A00000095AD038684FF0F80A10F00C0F17D026
:1014B000386800F00C00082804D1AE48006810F429
:1014C000800F0DD0E068A8B34FF00100C8F800000D
:1014D000FFF7AEFD0646286810F0020F15D01DE09C
:1014E000286810F0020F1CBFE068012840F0398125
:1014F00028689AFAAAF22169B2FA82F220F0F8007A
:1015000001FA02F140EA010012E0FFF791FD801BB1
:1015100002287CD8286810F0020FF6D028689AFAC2
:10152000AAF220F0F8012069B2FA82F29040084352
:10153000286012E0FFE7C8F80090FFF779FD064643
:10154000286810F0020F08D0FFF772FD801B0228F8
:101550005DD8286810F0020FF6D1207810F0080F3F
:101560002AD08548854E616999B101210160FFF754
:101570005FFD8246306810F0020F1DD1FFF758FD65
:10158000A0EB0A00022842D8306810F0020FF5D014
:1015900012E0C0F80090FFF74BFD8246306810F073
:1015A000020F09D0FFF744FDA0EB0A0002282ED855
:1015B000306810F0020FF5D1207810F0040F63D0DE
:1015C0006F48016841F08051016000686D4E00F085
:1015D00080500090306840F480703060FFF728FD44
:1015E0008246306810F4807F0AD100BFFFF720FDEB
:1015F000A0EB0A0002285ED8306810F4807FF5D096
:10160000A068614E01281DD00528306800E052E036
:101610000CBF40F0040020F00100306030680CBFC7
:1016200040F0010020F00400C6F80000A06841F27C
:10163000883BB8B1FFF7FCFC8246306810F0020F1F
:1016400005D021E0306840F001003060EEE7FFF7A0
:10165000EFFCA0EB0A0058452DD8306810F0020FBF
:10166000F5D011E0FFF7E4FC8246306810F0020F7D
:101670000AD000BFFFF7DCFCA0EB0A0058451AD8DF
:10168000306810F0020FF5D1A069E0B3396801F0BD
:101690000C01082965D00228C8F860900ED0FFF729
:1016A000C7FC0446286810F0007F57D0FFF7C0FC45
:1016B000001B02284ED90320BDE8F88FFFF7B8FCC5
:1016C0000646286810F0007F09D000BFFFF7B0FC85
:1016D000801B0228EFD8286810F0007FF6D1D4E9EB
:1016E000070140EA010247F6C07191FAA1F1606A70
:1016F000B1FA81F18840A16A4FF0FF3303EB510149
:101700004FF4403300E029E093FAA3F3B3FA83F3F4
:101710009940084310434FF0706292FAA2F2E16AD6
:10172000B2FA82F291400143124801600120C8F8E8
:101730006000FFF77DFC0446286810F0007F0DD1A3
:10174000FFF776FC001B0228B5D8286810F0007F50
:10175000F6D003E0286810F0007FA7D10020BDE894
:10176000F88F0120BDE8F88F0838024000380240A9
:101770000000474204380240800E4742743802405D
:10178000403802400070004070380240002804BF1A
:101790000120704770B5044690F8490015460E4682
:1017A00028B9002084F84800204600F01BF804F116
:1017B00008012068FFF7A8F83146A2682068FFF703
:1017C000D1F8D4E901022946236BFFF777F8A16825
:1017D000206850F8212042F0010240F8212000202A
:1017E00070BD0000284810B5016886B041F00101C5
:1017F0000160006800F0010005902448016841F094
:1018000008010160016801F008010591016841F0DB
:1018100010010160016801F010010591016841F0BB
:1018200020010160016801F020010591016841F08B
:10183000400101600068164C00F0400005904CF239
:101840003370009002200190012002900320039049
:101850000C20049069462046FFF7C6FA4FF68070C8
:10186000009069460B48FFF7BFFA4FF40050009014
:1018700069462046FFF7B8FA802000906946204666
:10188000FFF7B2FA06B010BD3838024030380240D7
:10189000000C0240001002404FF0E02104280869CB
:1018A0000CBF40F0040020F0040008617047000005
:1018B000411EB1F1807F24BF012070474FF0E0202E
:1018C0004161054AF02182F8141D00218161072140
:1018D00001610020704700000FE000E07047704792
:1018E000002804BF0120704710B5044690F8390065
:1018F00028B9002084F83800204600F00DF80220B6
:1019000084F83900211D206804F074F8012084F85F
:101910003900002010BD000008B50068A0F180412A
:10192000B1F5006118BF08BD0948016841F0040124
:1019300001600068032200F00400009001211E20D5
:10194000FFF7BCFBBDE808401E20FFF7AABB000064
:10195000403802400168CA6842F00102CA6000686B
:10196000016841F00101016000207047704770B5C7
:101970000446006801694FF0000511F0020F1CBF1A
:10198000C16811F0020F13D06FF002010161012054
:1019900020762068806910F0030F204602D0FFF700
:1019A000E5FF04E000F099F8204600F0F9F925760B
:1019B0002068016911F0040F1CBFC16811F0040F09
:1019C00013D06FF004010161022020762068806945
:1019D00010F4407F204602D0FFF7C8FF04E000F07B
:1019E0007CF8204600F0DCF925762068016911F0CA
:1019F000080F1CBFC16811F0080F13D06FF0080169
:101A00000161042020762068C06910F0030F204691
:101A100002D0FFF7ABFF04E000F05FF8204600F0D3
:101A2000BFF925762068016911F0100F1CBFC1684D
:101A300011F0100F13D06FF0100101610820207613
:101A40002068C06910F4407F204602D0FFF78EFF67
:101A500004E000F042F8204600F0A2F92576206864
:101A6000016911F0010F1CBFC16811F0010F05D011
:101A70006FF001010161204600F0B4F920680169AE
:101A800011F0800F1CBFC16811F0800F05D06FF0FE
:101A9000800101612046FFF721FF2068016911F0F4
:101AA000400F1CBFC16811F0400F05D06FF040011E
:101AB0000161204600F0A0F92068016911F0200FB3
:101AC0001ABFC16811F0200F70BD6FF020010161D5
:101AD0002046BDE87040FFF702BF704790F83830ED
:101AE000012B04BF022070472DE9F001012480F88A
:101AF0003840022380F83930844BDFF814C242B1F9
:101B0000042A45D0082A7DD00C2A00F0C28000F0BB
:101B1000F3B80268156A25F001051562156A566862
:101B20009769D1F8008027F0730748EA0707D1F8D2
:101B3000088025F0020548EA05059A4218BF62456B
:101B400011D1D1F80CC025F008034CEA030323F0AF
:101B50000405D1F814C026F440734CEA0303D1F80D
:101B600018C04CEA0306566097614B6853631562D0
:101B70000268936943F0080393610268936923F054
:101B80000403936102689369096943EA01013FE034
:101B90000268156A25F010051562156A566897697E
:101BA000D1F8008027F4E64747EA0827D1F80880F3
:101BB00025F0200545EA08159A4218BF624511D163
:101BC000D1F80CC025F0800343EA0C1323F0400544
:101BD000D1F814C026F4406343EA8C03D1F818C04E
:101BE00043EA8C06566097614B68936315620268FE
:101BF000936943F4006393610268936923F48063FB
:101C0000936100E006E002689369096943EA0121F3
:101C1000916171E00268156A25F480751562166A93
:101C20005568D769D1F8008027F0730748EA07079D
:101C3000D1F8088026F4007646EA08269A4218BFB2
:101C4000624511D1D1F80CC026F4006343EA0C239D
:101C500023F48066D1F814C025F4405343EA0C13F2
:101C6000D1F818C043EA0C155560D7614B68D363AF
:101C700016620268D36943F00803D3610268D3692E
:101C800023F00403D3610268D369096943EA0101BF
:101C900031E00268156A25F480551562176A5568A7
:101CA000D669D1F8008026F4E64646EA0826D1F83F
:101CB000088027F4005747EA08379A4218BF624560
:101CC00005D1D1F814C025F4804343EA8C15556042
:101CD000D6614B68136417620268D36943F40063EA
:101CE000D3610268D36923F48063D3610268D36946
:101CF000096943EA0121D16180F839404FF00001C0
:101D000080F83810BDE8F001084670470000014037
:101D100000040140002804BF0120704710B50446AC
:101D200090F8390028B9002084F83800204600F0E7
:101D30000DF8022084F83900211D206803F05AFEB6
:101D4000012084F83900002010BD0000114800B5C2
:101D5000016887B041F004010160006800F00400F0
:101D600005900D48016841F00801016000680121FB
:101D700000F0080005904FF4805000900220CDE95B
:101D800001010321CDE9031069460448FFF72CF84F
:101D900007B000BD4038024030380240000C02401D
:101DA00070470268012303FA01F1136A8B4313623F
:101DB000136A194311620168A1F18042B2F58032C1
:101DC0001CBFA1F18042B2F5823203D14A6C42F4C9
:101DD00000424A640068016841F00101016000208E
:101DE000704700000349884218BF7047012028F05F
:101DF000D1BE0000780300207047704790F839107A
:101E000090F83A000843704770B5016804460868C6
:101E1000CA684B6910F00F0F4FF0200545D003F052
:101E2000010C02F490765CEA060C00F0F38010F0EE
:101E3000010F18BF12F4807F05D0D4F83CC04CF0DD
:101E4000010CC4F83CC010F0040F18BF13F0010FD0
:101E500005D0D4F83CC04CF0020CC4F83CC010F0E3
:101E6000020F18BF13F0010F05D0D4F83CC04CF09E
:101E7000040CC4F83CC010F0080F18BF13F0010F99
:101E800003D0E36B43F00803E363E36B002B08BF6D
:101E900070BD10F0200F18BF12F0200F73D094F80F
:101EA0003A202046222A44D07DE010F0200F18BFAF
:101EB00012F0200F68D094F83A202046222A18BF4A
:101EC00070BD8268B2F5805F1ED002695AB349685E
:101ED00001F07F02816A4B1C83620A70C18D491E2A
:101EE0000904090CC18518BF70BD0168CA6822F4D5
:101EF0009072CA6001684A6922F001024A6180F862
:101F00003A5000F067F970BD0369826A4968002B96
:101F100014BFC9B2C1F308011180816A14BF491C02
:101F2000891C8162DAE74A68816A4B1C83620A7005
:101F3000D4E78268B2F5805F0FD00269E2B14968E8
:101F400001F07F02816A4B1C83620A70C18D491EB9
:101F50000904090CC18526D117E00369826A496822
:101F6000002B14BFC9B2C1F308011180816A14BFEC
:101F7000491C891C8162E9E74A68816A01F1010311
:101F800083620A70E2E70EE044E00168CA6822F466
:101F90009072CA6001684A6922F001024A6180F8C1
:101FA0003A5000F017F920684169E26BC1F38011E3
:101FB00012F0080F08BF002926D0C16821F49071E3
:101FC000C1602068416921F00101416184F83A5003
:101FD0002068416911F0400F12D0416921F04001A1
:101FE0004161606B60B12D490165606BFEF7EAFEEF
:101FF000002808BF70BD606B016DBDE870400847E8
:102000002046FFF7FAFE70BD2046FFF7F6FE0020DF
:10201000E06370BD10F0800F18BF12F0800F2CD05D
:1020200094F83900212818BF70BDA068B0F5805F12
:10203000206A16D0411C2162216800784860E08C3B
:10204000401E0004000CE08418BF70BD2068C16809
:1020500021F08001C1602068C16841F04001C16089
:1020600070BD0088C0F30800486020690028206A1D
:1020700014BF401C801C2062E1E710F0400F14BF29
:1020800012F0400F70BD2046CA6822F04002CA60BC
:1020900084F8395000F0D6F870BD0000C55A000829
:1020A000002804BF0120704770B5044690F839003D
:1020B000002520B984F83850204600F023F8242069
:1020C00084F839002068C16821F40051C1602046BD
:1020D00003F000FD2068016921F49041016120684E
:1020E000416921F02A0141612068C16841F4005131
:1020F000C160E563202084F8390084F83A000020AC
:1021000070BD000010B5006886B0A0F18041B1F547
:1021100088311CBF06B010BD1848016841F00101AC
:102120000160006800F0010005901548016841F069
:10213000100101600068012100F0100005904FF4CB
:10214000007000900220CDE90101039007200D4CA2
:10215000049069462046FEF747FE20150090694628
:102160002046FEF741FE2520FEF79BFF0322114685
:102170002520FEF7A3FF06B010BD00003038024056
:10218000443802400000024090F83A30202B1ED123
:10219000002912BF002A0120704790F83830012B27
:1021A00015D081628285C2850021C163222280F818
:1021B0003A2080F8381001684A6942F001024A6109
:1021C0000068C16841F49071C1600020704702202E
:1021D0007047000010B40068A0F18041B1F588316B
:1021E0001CBF10BC70471548418811F4004F1CBF3C
:1021F00010BC704711F4804F4FF000030F4A127863
:1022000007D00A2A08BF41F4004114D0438010BC13
:1022100070470D2A08BF41F480410CD0C1F30D0C6A
:10222000074C491C89B204F80C204180C7299CBF87
:1022300010BC7047EAE7418010BC704728000020BE
:10224000700200207047FEE72DE9F84F121A521C69
:102250005B1A5B1C1D04DDF828C092B22D0C4FF0F8
:10226000000308BFBDE8F88F354C4FEA102E00F090
:10227000FF0AB4F80A90B4F80C8027893148CC18CA
:10228000A6B2ADF80090BDF80040ADF80040BDF832
:1022900000B02D4CA4F800B0ADF800E0BDF800B0DF
:1022A000ADF800B0BDF800B0A0F800B0ADF800A0E7
:1022B000BDF800B0ADF800B0BDF800B0A0F800B0B7
:1022C000ADF80080BDF800B0ADF800B0BDF800B0CA
:1022D000A4F800B04FEA162BADF800B0BDF800B07E
:1022E000ADF800B0BDF800B0A0F800B0F6B2ADF89F
:1022F0000060BDF80060ADF80060BDF800600680C9
:102300002780BAB112F0010404D003FB02F63CF8B6
:102310001660068094420DD203FB02463CF816B0CC
:10232000A0F800B00CEB460676880680A41CA4B288
:102330009442F1D35B1C9BB2AB42A0D3BDE8F88FB3
:102340002004002000000860FEFF07602DE9F04F28
:10235000FF4895B00024016841F008010160006861
:10236000012700F0080000904FF48050CDE90107EC
:102370000320CDE9037001A9F648FEF735FDF80208
:10238000019001A9F348FEF72FFDF3484FF02041DB
:1023900010250160F149C0E90114C460C0E9044599
:1023A00084612902C461C0E909418900C0E90B4187
:1023B00089014463C0E90E414FF03C080F20CDF87D
:1023C0003C80CDE90D040920CDE9060408201394D2
:1023D0000890099406AA0DA90C94DF48FFF7D6F9D6
:1023E000322006F0F9FEDE4EC6F8AC720A2006F581
:1023F0002B7606F0F1FE3460322006F0EDFE3760F9
:10240000C82006F0E9FED420ADF80000BDF80000B9
:10241000ADF80000BDF80000D24E3080B41C20881A
:10242000ADF80000BDF800002088ADF80000BDF850
:1024300000002088ADF80000BDF800004FF6FF71E5
:1024400001EA00202188ADF80010BDF8001001431A
:10245000C5488180C5A0FDF7A7FFC3488188A1F5C5
:10246000A640103843F0BC80ED20ADF80000BDF868
:102470000000ADF80000BDF800003080ADF800703D
:10248000BDF80000ADF80000BDF800002080FE207F
:10249000ADF80000BDF80000ADF80000BDF8000088
:1024A0002080EE20ADF80000BDF80000ADF800007F
:1024B000BDF800003080DE20ADF80000BDF800005F
:1024C000ADF80000BDF8000020802121ADF800101B
:1024D000BDF80000ADF80000BDF800002080F1203C
:1024E000ADF80000BDF80000ADF80000BDF8000038
:1024F00030800120ADF80000BDF80000ADF800000C
:10250000BDF800002080DF20ADF80000BDF800001D
:10251000ADF80000BDF8000030801020ADF80000DC
:10252000BDF80000ADF80000BDF800002080C42018
:10253000ADF80000BDF80000ADF80000BDF80000E7
:1025400030808F20ADF80000BDF80000ADF800002D
:10255000BDF800002080C620ADF80000BDF80000E6
:10256000ADF80000BDF8000030800025ADF8005047
:10257000BDF80000ADF80000BDF800002080E220AA
:10258000ADF80000BDF80020ADF80020BDF8002037
:102590002280ADF80000BDF80020ADF80020BDF8A5
:1025A00000202280ADF80000BDF80000ADF800006A
:1025B000BDF800002080BF20ADF80000BDF800008D
:1025C000ADF80000BDF800003080AA20ADF8000092
:1025D000BDF80000ADF80000BDF800002080B0207C
:1025E000ADF80000BDF80000ADF80000BDF8000037
:1025F00030800D20ADF80000BDF80000ADF80000FF
:10260000BDF800002080ADF80050BDF80000ADF826
:102610000000BDF8000020800D20ADF80000BDF8DE
:102620000000ADF80000BDF800002080ADF80050BB
:10263000BDF80000ADF80000BDF8000020801120BA
:10264000ADF80000BDF80000ADF80000BDF80000D6
:102650002080ADF80050BDF80000ADF80000BDF8D6
:10266000000020801920ADF80000BDF80000ADF892
:102670000000BDF800002080ADF80050BDF800005B
:10268000ADF80000BDF800002080ADF80010BDF8E6
:102690000000ADF80000BDF800002080ADF800504B
:1026A000BDF80000ADF80000BDF8000020802D202E
:1026B000ADF80000BDF80000ADF80000BDF8000066
:1026C0002080ADF80050BDF80000ADF80000BDF866
:1026D000000020803D20ADF80000BDF80000ADF8FE
:1026E0000000BDF800002080ADF80050BDF80000EB
:1026F000ADF80000BDF8000020805D20ADF80000BE
:10270000BDF80010ADF80010BDF800102180ADF844
:102710000050BDF80010ADF80010BDF80010218089
:10272000ADF80000BDF80000ADF80000BDF80000F5
:102730002080ADF80050BDF80000ADF80000BDF8F5
:1027400000002080B120ADF80000BDF8000015E0C9
:1027500030380240000C0240D0030020040100A0E9
:1027600000804142FEFF076020040020204C4344CB
:102770002049443A25780D0A00000000ADF8000019
:10278000BDF8000030808020ADF80000BDF80000EA
:10279000ADF80000BDF800002080ADF80050BDF895
:1027A0000000ADF80000BDF8000020808B21ADF8DE
:1027B0000010BDF80000ADF80000BDF8000020805A
:1027C000ADF80050BDF80000ADF80000BDF8000005
:1027D00020809622ADF80020BDF80000ADF8000082
:1027E000BDF800002080ADF80050BDF80000ADF845
:1027F0000000BDF800002080B220ADF80000BDF858
:102800000000ADF80000BDF800003080ADF80050C9
:10281000BDF80000ADF80000BDF800002080ADF864
:102820000050BDF80000ADF80000BDF800002080A9
:102830000220ADF80000BDF80030ADF80030BDF862
:1028400000302380ADF80050BDF80030ADF8003006
:10285000BDF8003023804FF0030CADF800C0BDF888
:102860000030ADF80030BDF800302380ADF80050E6
:10287000BDF80030ADF80030BDF800302380B32340
:10288000ADF80030BDF80030ADF80030BDF80030D4
:102890003380ADF80050BDF80030ADF80030BDF821
:1028A00000302380ADF80050BDF80030ADF80030A6
:1028B000BDF800302380ADF80050BDF80030ADF811
:1028C0000030BDF800302380ADF80050BDF8003076
:1028D000ADF80030BDF800302380ADF80050BDF8F1
:1028E0000030ADF80030BDF800302380ADF8005066
:1028F000BDF80030ADF80030BDF800302380ADF8F1
:102900000050BDF80030ADF80030BDF80030238035
:10291000ADF80050BDF80030ADF80030BDF8003023
:102920002380ADF80050BDF80030ADF80030BDF8A0
:1029300000302380ADF80050BDF80030ADF8003015
:10294000BDF800302380ADF80050BDF80030ADF880
:102950000030BDF800302380ADF80050BDF80030E5
:10296000ADF80030BDF800302380ADF80050BDF860
:102970000030ADF80030BDF800302380ADF80050D5
:10298000BDF80030ADF80030BDF800302380ADF860
:102990000050BDF80030ADF80030BDF800302380A5
:1029A000ADF80050BDF80030ADF80030BDF8003093
:1029B0002380ADF80050BDF80030ADF80030BDF810
:1029C00000302380ADF80050BDF80030ADF8003085
:1029D000BDF800302380ADF80050BDF80030ADF8F0
:1029E0000030BDF800302380ADF80050BDF8003055
:1029F000ADF80030BDF800302380ADF80050BDF8D0
:102A00000030ADF80030BDF800302380ADF8005044
:102A1000BDF80030ADF80030BDF800302380ADF8CF
:102A20000050BDF80030ADF80030BDF80030238014
:102A3000ADF80050BDF80030ADF80030BDF8003002
:102A40002380B423ADF80030BDF80030ADF800307D
:102A5000BDF800303380ADF80010BDF80010ADF8BF
:102A60000010BDF800102180ADF80050BDF8001036
:102A7000ADF80010BDF800102180ADF80020BDF8C1
:102A80000010ADF80010BDF800102180ADF8005026
:102A9000BDF80010ADF80010BDF800102180A12194
:102AA000ADF80010BDF80010ADF80010BDF8001032
:102AB0002180ADF80050BDF80010ADF80010BDF851
:102AC00000102180B521ADF80010BDF80010ADF860
:102AD0000010BDF800103180ADF80000BDF8000016
:102AE000ADF80000BDF800002080ADF80050BDF842
:102AF0000000ADF80000BDF800002080ADF800C077
:102B0000BDF80000ADF80000BDF800002080ADF871
:102B10000050BDF80000ADF80000BDF800002080B6
:102B20000420ADF80000BDF80010ADF80010BDF8AD
:102B300000102180ADF80050BDF80010ADF8001075
:102B4000BDF800102180B621ADF80010BDF80010CE
:102B5000ADF80010BDF800103180ADF80050BDF8A0
:102B60000010ADF80010BDF800102180ADF8005045
:102B7000BDF80010ADF80010BDF800102180B7219D
:102B8000ADF80010BDF80010ADF80010BDF8001051
:102B90003180ADF80050BDF80010ADF80010BDF860
:102BA00000102180ADF80050BDF80010ADF8001005
:102BB000BDF8001021803F21ADF80010BDF80010D5
:102BC000ADF80010BDF800102180ADF80050BDF840
:102BD0000010ADF80010BDF8001021805E21ADF8A6
:102BE0000010BDF80010ADF80010BDF800102180F5
:102BF000ADF80050BDF80010ADF80010BDF80010A1
:102C000021806421ADF80010BDF80010ADF800106F
:102C1000BDF800102180ADF80050BDF80010ADF8EF
:102C20000010BDF8001021808C21ADF80010BDF817
:102C30000010ADF80010BDF800102180ADF8005074
:102C4000BDF80010ADF80010BDF800102180AC21D7
:102C5000ADF80010BDF80010ADF80010BDF8001080
:102C60002180ADF80050BDF80010ADF80010BDF89F
:102C700000102180DC21ADF80010BDF80020ADF877
:102C80000020BDF800202280ADF80050BDF80020E3
:102C9000ADF80020BDF8002022807022ADF80020A1
:102CA000BDF80020ADF80020BDF800202280ADF86E
:102CB0000050BDF80020ADF80020BDF800202280B3
:102CC0009022ADF80020BDF80020ADF80020BDF83E
:102CD00000202280ADF80050BDF80020ADF80020A3
:102CE000BDF800202280EB22ADF80020BDF80020C6
:102CF000ADF80020BDF800202280ADF80050BDF8EE
:102D00000020ADF80020BDF800202280ADF80010B2
:102D1000BDF80010ADF80010BDF800102180ADF82E
:102D20000050BDF80010ADF80010BDF80010218073
:102D3000B821ADF80010BDF80010ADF80010BDF8D6
:102D400000103180ADF80050BDF80010ADF8001053
:102D5000BDF800102180ADF80050BDF80010ADF8AE
:102D60000010BDF800102180ADF80050BDF8001033
:102D7000ADF80010BDF800102180ADF80050BDF88E
:102D80000010ADF80010BDF800102180ADF8005023
:102D9000BDF80010ADF80010BDF800102180ADF8AE
:102DA0000050BDF80010ADF80010BDF800102180F3
:102DB000ADF80050BDF80010ADF80010BDF80010DF
:102DC0002180ADF80050BDF80010ADF80010BDF83E
:102DD00000102180BA21ADF80010BDF80010ADF848
:102DE0000010BDF8001031802422ADF80020BDF89D
:102DF0000010ADF80010BDF800102180ADF80050B3
:102E0000BDF80010ADF80010BDF800102180ADF83D
:102E10000050BDF80010ADF80010BDF80010218082
:102E2000ADF80050BDF80010ADF80010BDF800106E
:102E30002180C121ADF80010BDF80010ADF80010E0
:102E4000BDF8001031802021ADF80010BDF8001051
:102E5000ADF80010BDF800102180ADF80050BDF8AD
:102E60000010ADF80010BDF8001021805421ADF81D
:102E70000010BDF80010ADF80010BDF80010218062
:102E8000ADF80050BDF80010ADF80010BDF800100E
:102E90002180FF21ADF80010BDF80010ADF8001042
:102EA000BDF800102180ADF80050BDF80010ADF85D
:102EB0000010BDF800102180C221ADF80010BDF84F
:102EC0000010ADF80010BDF8001031800A21ADF8F7
:102ED0000010BDF80010ADF80010BDF80010218002
:102EE000ADF80050BDF80010ADF80010BDF80010AE
:102EF0002180ADF80000BDF80000ADF80000BDF87D
:102F000000002080ADF80050BDF80000ADF80000D2
:102F1000BDF800002080C320ADF80000BDF800001F
:102F2000ADF80000BDF800003080ADF80080BDF8BD
:102F30000000ADF80000BDF800002080ADF80050A2
:102F4000BDF80000ADF80000BDF8000020803A2078
:102F5000ADF80000BDF80000ADF80000BDF80000BD
:102F60002080ADF80050BDF80000ADF80000BDF8BD
:102F7000000020803920ADF80000BDF80000ADF859
:102F80000000BDF800002080ADF80050BDF8000042
:102F9000ADF80000BDF8000020803720ADF800003B
:102FA000BDF80000ADF80000BDF800002080ADF8CD
:102FB0000050BDF80000ADF80000BDF80000208012
:102FC000ADF80080BDF80000ADF80000BDF80000CD
:102FD0002080ADF80050BDF80000ADF80000BDF84D
:102FE000000020803620ADF80000BDF80000ADF8EC
:102FF0000000BDF800002080ADF80050BDF80000D2
:10300000ADF80000BDF8000020803221ADF80010BE
:10301000BDF80000ADF80000BDF800002080ADF85C
:103020000050BDF80000ADF80000BDF800002080A1
:103030004FF02F09ADF80090BDF80000ADF800008A
:10304000BDF800002080ADF80050BDF80000ADF8DC
:103050000000BDF8000020802C20ADF80000BDF875
:103060000000ADF80000BDF800002080ADF8005071
:10307000BDF80000ADF80000BDF8000020804FF062
:10308000290CADF800C0BDF80000ADF80000BDF897
:1030900000002080ADF80050BDF80000ADF8000041
:1030A000BDF8000020804FF0260AADF800A0BDF862
:1030B0000000ADF80000BDF800002080ADF8005021
:1030C000BDF80000ADF80000BDF8000020801046FB
:1030D000ADF80020BDF80020ADF80020BDF80020BC
:1030E0002280ADF80050BDF80020ADF80020BDF8FA
:1030F00000202280ADF80000BDF80020ADF80020CF
:10310000BDF800202280ADF80050BDF80020ADF8D9
:103110000020BDF8002022802322ADF80020BDF859
:103120000030ADF80030BDF800302380ADF800501D
:10313000BDF80030ADF80030BDF800302380ADF8A8
:103140000080BDF80030ADF80030BDF800302380BD
:10315000ADF80050BDF80030ADF80030BDF80030DB
:1031600023803623ADF80030BDF80030ADF80030D4
:10317000BDF800302380ADF80050BDF80030ADF848
:103180000030BDF800302380ADF80010BDF80030ED
:10319000ADF80030BDF800302380ADF80050BDF828
:1031A0000030ADF80030BDF800302380ADF800905D
:1031B000BDF80030ADF80030BDF800302380ADF828
:1031C0000050BDF80030ADF80030BDF8003023806D
:1031D0002C23ADF80030BDF80030ADF80030BDF85C
:1031E00000302380ADF80050BDF80030ADF800305D
:1031F000BDF800302380ADF800C0BDF80030ADF858
:103200000030BDF800302380ADF80050BDF800302C
:10321000ADF80030BDF800302380ADF800A0BDF857
:103220000030ADF80030BDF800302380ADF800501C
:10323000BDF80030ADF80030BDF800302380ADF8A7
:103240000000BDF80030ADF80030BDF8003023803C
:10325000ADF80050BDF80030ADF80030BDF80030DA
:103260002380ADF80000BDF80000ADF80000BDF807
:1032700000002080ADF80050BDF80000ADF800005F
:10328000BDF800002080ADF80020BDF80000ADF8CA
:103290000000BDF800002080ADF80050BDF800002F
:1032A000ADF80000BDF800002080C423ADF8003068
:1032B000BDF80000ADF80000BDF8000030806220CD
:1032C000ADF80000BDF80000ADF80000BDF800004A
:1032D0002080ADF80050BDF80000ADF80000BDF84A
:1032E000000020800520ADF80000BDF80000ADF81A
:1032F0000000BDF800002080ADF80050BDF80000CF
:10330000ADF80000BDF8000020808420ADF800007A
:10331000BDF80000ADF80000BDF800002080ADF859
:103320000050BDF80000ADF80000BDF8000020809E
:10333000F020ADF80000BDF80000ADF80000BDF8C9
:1033400000002080ADF80050BDF80000ADF800008E
:10335000BDF8000020801820ADF80000BDF8000086
:10336000ADF80000BDF800002080ADF80050BDF8B9
:103370000000ADF80000BDF800002080A420ADF8EA
:103380000000BDF80000ADF80000BDF8000020808E
:10339000ADF80050BDF80000ADF80000BDF8000029
:1033A00020801820ADF80000BDF80000ADF8000046
:1033B000BDF800002080ADF80050BDF80000ADF869
:1033C0000000BDF8000020805020ADF80000BDF8DE
:1033D0000000ADF80000BDF800002080ADF80050FE
:1033E000BDF80000ADF80000BDF8000020800C2002
:1033F000ADF80000BDF80000ADF80000BDF8000019
:103400002080ADF80050BDF80000ADF80000BDF818
:10341000000020801720ADF80000BDF80000ADF8D6
:103420000000BDF800002080ADF80050BDF800009D
:10343000ADF80000BDF8000020809520ADF8000038
:10344000BDF80000ADF80000BDF800002080ADF828
:103450000050BDF80000ADF80000BDF8000020806D
:10346000F320ADF80000BDF80000ADF80000BDF895
:1034700000002080ADF80050BDF80000ADF800005D
:10348000BDF800002080E620ADF80000BDF8000087
:10349000ADF80000BDF800002080ADF80050BDF888
:1034A0000000ADF80000BDF800002080C520ADF898
:1034B0000000BDF80000ADF80000BDF8000030804D
:1034C0003220ADF80000BDF80000ADF80000BDF8F6
:1034D00000002080ADF80050BDF80000ADF80000FD
:1034E000BDF8000020804420ADF80000BDF80000C9
:1034F000ADF80000BDF800002080ADF80050BDF828
:103500000000ADF80000BDF8000020806520ADF897
:103510000000BDF80000ADF80000BDF800002080FC
:10352000ADF80050BDF80000ADF80000BDF8000097
:1035300020807620ADF80000BDF80000ADF8000056
:10354000BDF800002080ADF80050BDF80000ADF8D7
:103550000000BDF8000020808820ADF80000BDF814
:103560000000ADF80000BDF800002080ADF800506C
:10357000BDF80000ADF80000BDF800002080C620B6
:10358000ADF80000BDF80000ADF80000BDF8000087
:1035900030802020ADF80000BDF80000ADF800003C
:1035A000BDF800002080ADF80050BDF80000ADF877
:1035B0000000BDF8000020801720ADF80000BDF825
:1035C0000000ADF80000BDF800002080ADF800500C
:1035D000BDF80000ADF80000BDF800002080ADF897
:1035E0000070BDF80000ADF80000BDF800102046E6
:1035F0002180ADF80050BDF80010ADF80010BDF806
:1036000000102180C721ADF80010BDF80010ADF802
:103610000010BDF800103180ADF80050BDF800106A
:10362000ADF80010BDF800100180ADF80050BDF8F5
:103630000010ADF80010BDF800100180ADF800508A
:10364000BDF80010ADF80010BDF800100180ADF815
:103650000050BDF80010ADF80010BDF8001001805A
:10366000C821ADF80010BDF80010ADF80010BDF88D
:1036700000103180ADF80050BDF80010ADF800101A
:10368000BDF800100180ADF80050BDF80010ADF895
:103690000010BDF800100180ADF80050BDF800101A
:1036A000ADF80010BDF800100180ADF80050BDF875
:1036B0000010ADF80010BDF800100180C921ADF870
:1036C0000010BDF80010ADF80010BDF800103180FA
:1036D000ADF80050BDF80010ADF80010BDF80010B6
:1036E0000180ADF80050BDF80010ADF80010BDF835
:1036F00000100180ADF80050BDF80010ADF80010CA
:10370000BDF800100180ADF80050BDF80010ADF814
:103710000010BDF800100180ADF80050BDF8001099
:10372000ADF80010BDF800100180ADF80050BDF8F4
:103730000010ADF80010BDF800100180ADF8005089
:10374000BDF80010ADF80010BDF800100180ADF814
:103750000050BDF80010ADF80010BDF80010018059
:10376000ADF80050BDF80010ADF80010BDF8001025
:103770000180ADF80050BDF80010ADF80010BDF8A4
:1037800000100180ADF80050BDF80010ADF8001039
:10379000BDF800100180ADF80050BDF80010ADF884
:1037A0000010BDF800100180ADF80050BDF8001009
:1037B000ADF80010BDF800100180ADF80050BDF864
:1037C0000010ADF80010BDF800100180ADF80050F9
:1037D000BDF80010ADF80010BDF800100180ADF884
:1037E0000050BDF80010ADF80010BDF800100180C9
:1037F000E021ADF80010BDF800C0ADF800C0BDF884
:1038000000C0A6F800C04FF0160CADF800C0BDF81F
:1038100000C0ADF800C0BDF800C0A0F800C0ADF811
:103820000050BDF800C0ADF800C0BDF800C0A0F861
:1038300000C04FF01C0CADF800C0BDF800C0ADF8E2
:1038400000C0BDF800C0A0F800C0ADF80050BDF841
:1038500000C0ADF800C0BDF800C0A0F800C04FF037
:10386000210CADF800C0BDF800C0ADF800C0BDF837
:1038700000C0A0F800C0ADF80050BDF800C0ADF821
:1038800000C0BDF800C0A0F800C04FF0360CADF885
:1038900000C0BDF800C0ADF800C0BDF800C0A0F881
:1038A00000C0ADF80050BDF800C0ADF800C0BDF8D4
:1038B00000C0A0F800C04FF0460CADF800C0BDF845
:1038C00000C0ADF800C0BDF800C0A0F800C0ADF861
:1038D0000050BDF800C0ADF800C0BDF800C0A0F8B1
:1038E00000C04FF0520CADF800C0BDF800C0ADF8FC
:1038F00000C0BDF800C0A0F800C0ADF80050BDF891
:1039000000C0ADF800C0BDF800C0A0F800C04FF086
:10391000640CADF800C0BDF800C0ADF800C0BDF843
:1039200000C0A0F800C0ADF80050BDF800C0ADF870
:1039300000C0BDF800C0A0F800C04FF07A0CADF890
:1039400000C0BDF800C0ADF800C0BDF800C0A0F8D0
:1039500000C0ADF80050BDF800C0ADF800C0BDF823
:1039600000C0A0F800C04FF08B0CADF800C0BDF84F
:1039700000C0ADF800C0BDF800C0A0F800C0ADF8B0
:103980000050BDF800C0ADF800C0BDF800C0A0F800
:1039900000C04FF0990EF446ADF800E0BDF800907D
:1039A000ADF80090BDF80090A0F800904FF000092D
:1039B000ADF80090BDF80090ADF80090BDF8009013
:1039C000A0F800904FF0A809ADF80090BDF8009065
:1039D000ADF80090BDF80090A0F800904FF00009FD
:1039E000ADF80090BDF80090ADF80090BDF80090E3
:1039F000A0F800904FF0B909ADF80090BDF8009024
:103A0000ADF80090BDF80090A0F800904FF00009CC
:103A1000ADF80090BDF80090ADF80090BDF80090B2
:103A2000A0F80090ADF80030BDF80090ADF800901F
:103A3000BDF80090A0F800904FF00009ADF800909C
:103A4000BDF80090ADF80090BDF80090A0F800908F
:103A50004FF0CA0BADF800B0BDF80090ADF8009083
:103A6000BDF80090A0F800904FF00009ADF800906C
:103A7000BDF80090ADF80090BDF80090A0F800905F
:103A80004FF0D20AADF800A0BDF80090ADF800905C
:103A9000BDF80090A0F800904FF00009ADF800903C
:103AA000BDF80090ADF80090BDF80090A0F800902F
:103AB0004FF0D909ADF80090BDF80090ADF8009036
:103AC000BDF80090A0F800904FF00009ADF800900C
:103AD000BDF80090ADF80090BDF80090A0F80090FF
:103AE000ADF80010BDF80090ADF80090BDF8009062
:103AF000A0F800904FF00009ADF80090BDF80090DC
:103B0000ADF80090BDF80090A0F800904FF0F309D8
:103B1000ADF80090BDF80090ADF80090BDF80090B1
:103B2000A0F800904FF00009ADF80090BDF80090AB
:103B3000ADF80090BDF80090A0F800904FF0E109BA
:103B4000ADF80090BDF80090ADF80090BDF8009081
:103B5000A6F800904FF01609ADF80090BDF800905F
:103B6000ADF80090BDF80090A0F800904FF000096B
:103B7000ADF80090BDF80090ADF80090BDF8009051
:103B8000A0F800904FF01C09ADF80090BDF800902F
:103B9000ADF80090BDF80090A0F800904FF000093B
:103BA000ADF80090BDF80090ADF80090BDF8009021
:103BB000A0F800904FF02209ADF80090BDF80090F9
:103BC000ADF80090BDF80090A0F800904FF000090B
:103BD000ADF80090BDF80090ADF80090BDF80090F1
:103BE000A0F800904FF03609ADF80090BDF80090B5
:103BF000ADF80090BDF80090A0F800904FF00009DB
:103C0000ADF80090BDF80090ADF80090BDF80090C0
:103C1000A0F800904FF04509ADF80090BDF8009075
:103C2000ADF80090BDF80090A0F800904FF00009AA
:103C3000ADF80090BDF80090ADF80090BDF8009090
:103C4000A0F800904FF05209ADF80090BDF8009038
:103C5000ADF80090BDF80090A0F800904FF000097A
:103C6000ADF80090BDF80090ADF80090BDF8009060
:103C7000A0F800904FF06409ADF80090BDF80090F6
:103C8000ADF80090BDF80090A0F800904FF000094A
:103C9000ADF80090BDF80090ADF80090BDF8009030
:103CA000A0F800904FF07A09ADF80090BDF80090B0
:103CB000ADF80090BDF80090A0F800904FF000091A
:103CC000ADF80090BDF80090ADF80090BDF8009000
:103CD000A0F800904FF08B09ADF80090BDF800906F
:103CE000ADF80090BDF80090A0F800904FF00009EA
:103CF000ADF80090BDF80090ADF80090BDF80090D0
:103D0000A0F80090ADF800C0BDF800C0ADF800C04C
:103D1000BDF800C0A0F800C04FF0000CADF800C026
:103D2000BDF800C0ADF800C0BDF800C0A0F800C0EC
:103D30004FF0A80CADF800C0BDF800C0ADF800C051
:103D4000BDF800C0A0F800C04FF0000CADF800C0F6
:103D5000BDF800C0ADF800C0BDF800C0A0F800C0BC
:103D60004FF0B90CADF800C0BDF800C0ADF800C010
:103D7000BDF800C0A0F800C04FF0000CADF800C0C6
:103D8000BDF800C0ADF800C0BDF800C0A0F800C08C
:103D9000ADF80030BDF800C0ADF800C0BDF800C0FF
:103DA000A0F800C04FF0000CADF800C0BDF800C096
:103DB000ADF800C0BDF800C0A0F800C0ADF800B07C
:103DC000BDF800C0ADF800C0BDF800C0A0F800C04C
:103DD000ADF80050BDF800C0ADF800C0BDF800C09F
:103DE000A0F800C0ADF800A0BDF800C0ADF800C05C
:103DF000BDF800C0A0F800C0ADF80050BDF800C08C
:103E0000ADF800C0BDF800C0A0F800C04FF0D80C5D
:103E1000ADF800C0BDF800C0ADF800C0BDF800C0EE
:103E2000A0F800C0ADF80050BDF800C0ADF800C06B
:103E3000BDF800C0A0F800C0ADF80010BDF800103B
:103E4000ADF80010BDF800100180ADF80050BDF8CD
:103E50000010ADF80010BDF8001001804FF0F30C19
:103E6000ADF800C0BDF80010ADF80010BDF80010AE
:103E70000180ADF80050BDF80010ADF80010BDF89D
:103E800000100180E221ADF80010BDF80010ADF87F
:103E90000010BDF8001031804FF0050BADF800B0F8
:103EA000BDF80010ADF80010BDF800100180ADF8AD
:103EB0000050BDF80010ADF80010BDF800100180F2
:103EC0000B21ADF80010BDF80010ADF80010BDF8E2
:103ED00000100180ADF80050BDF80010ADF80010E2
:103EE000BDF8001001801B21ADF80010BDF80010D6
:103EF000ADF80010BDF800100180ADF80050BDF81D
:103F00000010ADF80010BDF8001001803421ADF8AC
:103F10000010BDF80010ADF80010BDF800100180D1
:103F2000ADF80050BDF80010ADF80010BDF800105D
:103F300001804421ADF80010BDF80010ADF800106C
:103F4000BDF800100180ADF80050BDF80010ADF8CC
:103F50000010BDF8001001804F21ADF80010BDF831
:103F60000010ADF80010BDF800100180ADF8005051
:103F7000BDF80010ADF80010BDF8001001806121FF
:103F8000ADF80010BDF80010ADF80010BDF800103D
:103F90000180ADF80050BDF80010ADF80010BDF87C
:103FA000001001807921ADF80010BDF80010ADF8C7
:103FB0000010BDF800100180ADF80050BDF80010F1
:103FC000ADF80010BDF8001001804FF0880AADF880
:103FD00000A0BDF80010ADF80010BDF80010018081
:103FE000ADF80050BDF80010ADF80010BDF800109D
:103FF00001809721ADF80010BDF80010ADF8001059
:10400000BDF800100180ADF80050BDF80010ADF80B
:104010000010BDF800100180A621ADF80010BDF819
:104020000010ADF80010BDF800100180ADF8005090
:10403000BDF80010ADF80010BDF800100180B721E8
:10404000ADF80010BDF80010ADF80010BDF800107C
:104050000180ADF80050BDF80010ADF80010BDF8BB
:1040600000100180C221ADF80010BDF80010ADF8BD
:104070000010BDF800100180ADF80050BDF8001030
:10408000ADF80010BDF800100180C721ADF8001098
:10409000BDF80010ADF80010BDF800100180ADF8BB
:1040A0000050BDF80010ADF80010BDF80010018000
:1040B000D121ADF80010BDF80010ADF80010BDF82A
:1040C00000100180ADF80050BDF80010ADF80010F0
:1040D000BDF800100180D621ADF80010BDF8001029
:1040E000ADF80010BDF800100180ADF80050BDF82B
:1040F0000010ADF80010BDF8001001804FF0DD0990
:10410000ADF80090BDF80010ADF80010BDF800103B
:104110000180ADF80050BDF80010ADF80010BDF8FA
:1041200000100180F321ADF80010BDF80010ADF8CB
:104130000010BDF800100180ADF80050BDF800106F
:10414000ADF80010BDF800100180E321ADF80010BB
:10415000BDF80010ADF80010BDF800103180ADF8CA
:1041600000B0BDF80010ADF80010BDF800100180DF
:10417000ADF80050BDF80010ADF80010BDF800100B
:1041800001800A21ADF80010BDF80010ADF8001054
:10419000BDF800100180ADF80050BDF80010ADF87A
:1041A0000010BDF8001001801C21ADF80010BDF812
:1041B0000010ADF80010BDF800100180ADF80050FF
:1041C000BDF80010ADF80010BDF8001001803321DB
:1041D000ADF80010BDF80010ADF80010BDF80010EB
:1041E0000180ADF80050BDF80010ADF80010BDF82A
:1041F000001001804421ADF80010BDF800B0ADF80A
:1042000000B0BDF800B0A0F800B0ADF80050BDF8A7
:1042100000B0ADF800B0BDF800B0A0F800B04FF0AD
:10422000500BADF800B0BDF800B0ADF800B0BDF86F
:1042300000B0A0F800B0ADF80050BDF800B0ADF887
:1042400000B0BDF800B0A0F800B04FF0620BADF8C0
:1042500000B0BDF800B0ADF800B0BDF800B0A0F8F7
:1042600000B0ADF80050BDF800B0ADF800B0BDF83A
:1042700000B0A0F800B04FF0780BADF800B0BDF87A
:1042800000B0ADF800B0BDF800B0A0F800B0ADF8D7
:104290000050BDF800B0ADF800B0BDF800B0A0F817
:1042A00000B0ADF800A0BDF800A0ADF800A0BDF8CA
:1042B00000A0A0F800A0ADF80050BDF800A0ADF837
:1042C00000A0BDF800A0A0F800A04FF0970AADF83C
:1042D00000A0BDF800A0ADF800A0BDF800A0A0F8B7
:1042E00000A0ADF80050BDF800A0ADF800A0BDF8EA
:1042F00000A0A0F800A04FF0A60AADF800A0BDF8FD
:1043000000A0ADF800A0BDF800A0A0F800A0ADF896
:104310000050BDF800A0ADF800A0BDF800A0A0F8C6
:1043200000A04FF0B70AADF800A0BDF800A0ADF8AE
:1043300000A0BDF800A0A0F800A0ADF80050BDF8A6
:1043400000A0ADF800A0BDF800A0A0F800A04FF0BC
:10435000C20AADF800A0BDF800A0ADF800A0BDF8FD
:1043600000A0A0F800A0ADF80050BDF800A0ADF886
:1043700000A0BDF800A0A0F800A04FF0C70AADF85B
:1043800000A0BDF800A0ADF800A0BDF800A0A0F806
:1043900000A0ADF80050BDF800A0ADF800A0BDF839
:1043A00000A0A0F800A04FF0D10AADF800A0BDF821
:1043B00000A0ADF800A0BDF800A0A0F800A0ADF8E6
:1043C0000050BDF800A0ADF800A0BDF800A0A0F816
:1043D00000A04FF0D50AADF800A0BDF800A0ADF8E0
:1043E00000A0BDF800A0A0F800A0ADF80050BDF8F6
:1043F00000A0ADF800A0BDF800A0A0F800A0ADF8A6
:104400000090BDF800A0ADF800A0BDF800A0A0F895
:1044100000A0ADF80050BDF800A0ADF800A0BDF8B8
:1044200000A0A0F800A0ADF800C0BDF800C0ADF835
:1044300000C0BDF800C0A0F800C0ADF80050BDF845
:1044400000C0ADF800C0BDF800C0A0F800C04FF03B
:10445000E40CADF800C0BDF800C0ADF800C0BDF878
:1044600000C0A6F800C0ADF80070BDF800C0ADF8FF
:1044700000C0BDF800C0A0F800C0ADF80050BDF805
:1044800000C0ADF800C0BDF800C0A0F800C0ADF895
:104490000070BDF800C0ADF800C0BDF800C0A0F8C5
:1044A00000C0ADF80050BDF800C0ADF800C0BDF8C8
:1044B00000C0A0F800C04FF0020AADF800A0BDF89F
:1044C00000C0ADF800C0BDF800C0A0F800C0ADF855
:1044D0000050BDF800C0ADF800C0BDF800C0A0F8A5
:1044E00000C04FF02A0CADF800C0BDF800C0ADF818
:1044F00000C0BDF800C0A0F800C0ADF80050BDF885
:1045000000C0ADF800C0BDF800C0A0F800C0C446AF
:10451000ADF800C0BDF800C0ADF800C0BDF800C0E7
:10452000A0F800C0ADF80050BDF800C0ADF800C064
:10453000BDF800C0A0F800C04FF04B0CADF800C0B3
:10454000BDF800C0ADF800C0BDF800C0A0F800C0C4
:10455000ADF80050BDF800C0ADF800C0BDF800C017
:10456000A0F800C04FF05D0BADF800B0BDF800C082
:10457000ADF800C0BDF800C0A0F800C0ADF8005014
:10458000BDF800C0ADF800C0BDF800C0A0F800C084
:104590004FF0740CADF800C0BDF800C0ADF800C01D
:1045A000BDF800C0A0F800C0ADF80050BDF800C0D4
:1045B000ADF800C0BDF800C0A0F800C04FF0840CFA
:1045C000ADF800C0BDF800C0ADF800C0BDF800C037
:1045D000A0F800C0ADF80050BDF800C0ADF800C0B4
:1045E000BDF800C0A0F800C04FF0930CADF800C0BB
:1045F000BDF800C0ADF800C0BDF800C0A0F800C014
:10460000ADF80050BDF800C0ADF800C0BDF800C066
:10461000A0F800C04FF0A20CADF800C0BDF800C07B
:10462000ADF800C0BDF800C0A0F800C0ADF8005063
:10463000BDF800C0ADF800C0BDF800C0A0F800C0D3
:104640004FF0B30CADF800C0BDF80080ADF80080AD
:10465000BDF80080A0F80080ADF80050BDF80080E3
:10466000ADF80080BDF80080A0F800804FF0BE08D3
:10467000ADF80080BDF80080ADF80080BDF8008086
:10468000A0F80080ADF80050BDF80080ADF80080C3
:10469000BDF80080A0F80080ADF80030BDF80080C3
:1046A000ADF80080BDF80080A0F80080ADF80050A3
:1046B000BDF80080ADF80080BDF80080A0F8008053
:1046C0004FF0CD08ADF80080BDF80080ADF8008057
:1046D000BDF80080A0F80080ADF80050BDF8008063
:1046E000ADF80080BDF80080A0F800804FF0D3083E
:1046F000ADF80080BDF80080ADF80080BDF8008006
:10470000A0F80080ADF80050BDF80080ADF8008042
:10471000BDF80080A0F80080ADF80090BDF80080E2
:10472000ADF80080BDF80080A0F80080ADF8005022
:10473000BDF80080ADF80080BDF80080A0F80080D2
:104740004FF0F308ADF80080BDF80090ADF8009090
:10475000BDF80090A0F80090ADF80050BDF80090B2
:10476000ADF80090BDF80090A0F800904FF0E5097A
:10477000ADF80090BDF80090ADF80090BDF8009045
:10478000A6F80090ADF80050BDF80090ADF800908C
:10479000BDF80090A0F80090ADF80050BDF8009072
:1047A000ADF80090BDF80090A0F80090ADF8005072
:1047B000BDF80090ADF80090BDF80090A0F8009012
:1047C000ADF80050BDF80090ADF80090BDF8009035
:1047D000A0F80090ADF800A0BDF80090ADF80090F2
:1047E000BDF80090A0F80090ADF80050BDF8009022
:1047F000ADF80090BDF80090A0F800904FF02909A6
:10480000ADF80090BDF80090ADF80090BDF80090B4
:10481000A0F80090ADF80050BDF80090ADF8009001
:10482000BDF80090A0F800904FF03C09ADF8009062
:10483000BDF80090ADF80090BDF80090A0F8009091
:10484000ADF80050BDF80090ADF80090BDF80090B4
:10485000A0F800904FF04B09ADF80090BDF8009023
:10486000ADF80090BDF80090A0F80090ADF80050B1
:10487000BDF80090ADF80090BDF80090A0F8009051
:10488000ADF800B0BDF80090ADF80090BDF8009014
:10489000A0F80090ADF80050BDF80090ADF8009081
:1048A000BDF80090A0F800904FF07409ADF80090AA
:1048B000BDF80090ADF80090BDF80090A0F8009011
:1048C000ADF80050BDF80090ADF80090BDF8009034
:1048D000A0F800904FF08409ADF80090BDF800906A
:1048E000ADF80090BDF80090A0F80090ADF8005031
:1048F000BDF80090ADF80090BDF80090A0F80090D1
:104900004FF09309ADF80090BDF80090ADF800901D
:10491000BDF80090A0F80090ADF80050BDF80090F0
:10492000ADF80090BDF80090A0F800904FF0A209FB
:10493000ADF80090BDF80090ADF80090BDF8009083
:10494000A0F80090ADF80050BDF80090ADF80090D0
:10495000BDF80090A0F80090ADF800C0BDF800C010
:10496000ADF800C0BDF800C0A0F800C0ADF8005020
:10497000BDF800C0ADF800C0BDF800C0A0F800C090
:104980004FF0BE0CADF800C0BDF800C0ADF800C0DF
:10499000BDF800C0A0F800C0ADF80050BDF800C0E0
:1049A000ADF800C0BDF800C0A0F800C0ADF8003000
:1049B000BDF80030ADF80030BDF800300380ADF830
:1049C0000050BDF80030ADF80030BDF80030038075
:1049D000CD23ADF80030BDF80030ADF80030BDF8A3
:1049E00000300380ADF80050BDF80030ADF8003065
:1049F000BDF800300380D323ADF80030BDF800309F
:104A0000ADF80030BDF800300380ADF80050BDF8BF
:104A10000030ADF80030BDF800300380DC23ADF885
:104A20000030BDF80030ADF80030BDF80030038034
:104A3000ADF80050BDF80030ADF80030BDF80030E2
:104A40000380F323ADF80030BDF80030ADF800303E
:104A5000BDF800300380ADF80050BDF80030ADF86F
:104A60000030BDF800300380E623ADF80030BDF81B
:104A70000030ADF80030BDF8003033801123ADF8C0
:104A80000030BDF80030ADF80030BDF800300380D4
:104A9000ADF80050BDF80030ADF80030BDF8003082
:104AA00003803423ADF80030BDF80030ADF800309D
:104AB000BDF800300380ADF80050BDF80030ADF80F
:104AC0000030BDF8003003805623ADF80030BDF84B
:104AD0000030ADF80030BDF800300380ADF8005074
:104AE000BDF80030ADF80030BDF8003003804FF065
:104AF0007609ADF80090BDF80030ADF80030BDF893
:104B000000300380ADF80050BDF80030ADF8003043
:104B1000BDF8003003807723ADF80030BDF80030D9
:104B2000ADF80030BDF800300380ADF80050BDF89E
:104B30000030ADF80030BDF8003003806623ADF8DA
:104B40000030BDF800C0ADF800C0BDF800C0A0F84E
:104B500000C0ADF80050BDF800C0ADF800C0BDF811
:104B600000C0A0F800C04FF0880CADF800C0BDF840
:104B700000C0ADF800C0BDF800C0A0F800C0ADF89E
:104B80000050BDF800C0ADF800C0BDF800C0A0F8EE
:104B900000C0F446ADF800E0BDF80080ADF800803C
:104BA000BDF80080A0F80080ADF80050BDF800808E
:104BB000ADF80080BDF80080A0F800804FF0BB0881
:104BC000ADF80080BDF800A0ADF800A0BDF800A0D1
:104BD000A0F800A0ADF80050BDF800A0ADF800A00E
:104BE000BDF800A0A0F800A0F246ADF800A0BDF806
:104BF00000A0ADF800A0BDF800A0A0F800A0ADF89E
:104C00000050BDF800A0ADF800A0BDF800A0A0F8CD
:104C100000A0ADF80030BDF800A0ADF800A0BDF8D0
:104C200000A0A0F800A0ADF80050BDF800A0ADF8BD
:104C300000A0BDF800A0A0F800A04FF0550BADF803
:104C400000B0BDF800A0ADF800A0BDF800A0A0F82D
:104C500000A0ADF80050BDF800A0ADF800A0BDF870
:104C600000A0A0F800A0ADF800B0BDF800A0ADF81D
:104C700000A0BDF800A0A0F800A0ADF80050BDF85D
:104C800000A0ADF800A0BDF800A0A0F800A04FF073
:104C9000450AADF800A0BDF800A0ADF800A0BDF831
:104CA00000A0A0F800A0ADF80050BDF800A0ADF83D
:104CB00000A0BDF800A0A0F800A04FF0430AADF896
:104CC00000A0BDF800A0ADF800A0BDF800A0A0F8BD
:104CD00000A0ADF80050BDF800A0ADF800A0BDF8F0
:104CE00000A0A0F800A0ADF80010BDF800A0ADF83D
:104CF00000A0BDF800A0A0F800A0ADF80050BDF8DD
:104D000000A0ADF800A0BDF800A0A0F800A04FF0F2
:104D1000E70AADF800A0BDF800A0ADF800A0BDF80E
:104D200000A0A6F800A04FF0320AADF800A0BDF830
:104D300000A0ADF800A0BDF800A0A0F800A0ADF85C
:104D40000050BDF800A0ADF800A0BDF800A0A0F88C
:104D500000A0DE46ADF800B0BDF800A0ADF800A0A0
:104D6000BDF800A0A0F800A0ADF80050BDF800A06C
:104D7000ADF800A0BDF800A0A0F800A0ADF800902C
:104D8000BDF80090ADF80090BDF80090A0F800903C
:104D9000ADF80050BDF80090ADF80090BDF800905F
:104DA000A0F80090ADF80030BDF80090ADF800908C
:104DB000BDF80090A0F80090ADF80050BDF800904C
:104DC000ADF80090BDF80090A0F800904FF0670992
:104DD000ADF80090BDF800A0ADF800A0BDF800A0AF
:104DE000A0F800A0ADF80050BDF800A0ADF800A0FC
:104DF000BDF800A0A0F800A0ADF80090BDF80090AC
:104E0000ADF80090BDF80090A0F80090ADF800500B
:104E1000BDF80090ADF80090BDF80090A0F80090AB
:104E20004FF0870BADF800B0BDF80090ADF80090E2
:104E3000BDF80090A0F80090ADF80050BDF80090CB
:104E4000ADF80090BDF80090A0F80090ADF800C05B
:104E5000BDF80090ADF80090BDF80090A0F800906B
:104E6000ADF80050BDF80090ADF80090BDF800908E
:104E7000A0F80090ADF80080BDF80090ADF800906B
:104E8000BDF80090A0F80090ADF80050BDF800907B
:104E9000ADF80090BDF80090A0F800904FF099098F
:104EA000ADF80090BDF80090ADF80090BDF800900E
:104EB000A0F80090ADF80050BDF80090ADF800905B
:104EC000BDF80090A0F800904FF0770AADF800A070
:104ED000BDF80090ADF80090BDF80090A0F80090EB
:104EE000ADF80050BDF80090ADF80090BDF800900E
:104EF000A0F80090ADF80010BDF80090ADF800905B
:104F0000BDF80090A0F80090ADF80050BDF80090FA
:104F1000ADF80090BDF80090A0F800904FF0560951
:104F2000ADF80090BDF80090ADF80090BDF800908D
:104F3000A0F80090ADF80050BDF80090ADF80090DA
:104F4000BDF80090A0F80090ADF80020BDF800205A
:104F5000ADF80020BDF800200280ADF80050BDF88B
:104F60000020ADF80020BDF8002002803322ADF80B
:104F70000020BDF80020ADF80020BDF80020028020
:104F8000ADF80050BDF80020ADF80020BDF80020BD
:104F900002804522ADF80020BDF80020ADF80020C9
:104FA000BDF800200280ADF80050BDF80020ADF83B
:104FB0000020BDF800200280E822ADF80020BDF8F6
:104FC0000020ADF80020BDF800203280ADF8005080
:104FD000BDF80020ADF80020BDF800200280ADF83B
:104FE0000050BDF80020ADF80020BDF80020028080
:104FF0009922ADF80020BDF80020ADF80020BDF8E2
:1050000000200280ADF80050BDF80020ADF800206F
:10501000BDF800200280ADF800B0BDF80020ADF86A
:105020000020BDF800200280ADF80050BDF800203F
:10503000ADF80020BDF8002002808822ADF80020E5
:10504000BDF80090ADF80090BDF80090A0F8009079
:10505000ADF80050BDF80090ADF80090BDF800909C
:10506000A0F80090ADF800A0BDF80090ADF8009059
:10507000BDF80090A0F80090ADF80050BDF8009089
:10508000ADF80090BDF80090A0F80090ADF80030A9
:10509000BDF80090ADF80090BDF80090A0F8009029
:1050A000ADF80050BDF80090ADF80090BDF800904C
:1050B000A4F80090ADF80020BDF80000ADF80000A5
:1050C000BDF800002080ADF80050BDF80000ADF83C
:1050D0000000BDF800002080AA20ADF80000BDF857
:1050E0000020ADF80020BDF800202280ADF800506F
:1050F000BDF80020ADF80020BDF800202280ADF8FA
:105100000080BDF80020ADF80020BDF8002022800E
:10511000ADF80050BDF80020ADF80020BDF800202B
:105120002280ADF800C0BDF80020ADF80020BDF829
:1051300000202280ADF80050BDF80020ADF800201E
:10514000BDF800202280ADF80030BDF80020ADF899
:105150000020BDF800202280ADF80050BDF80020EE
:10516000ADF80020BDF800202280F046ADF800E048
:10517000BDF80020ADF80020BDF800202280ADF879
:105180000050BDF80020ADF80020BDF800202280BE
:10519000ADF800E0BDF80020ADF80020BDF800201B
:1051A0002280ADF80050BDF80020ADF80020BDF819
:1051B00000202280ADF80010BDF80020ADF80020DE
:1051C000BDF800202280ADF80050BDF80020ADF8F9
:1051D0000020BDF800202280ADF80010BDF80010BE
:1051E000ADF80010BDF800102180ADF80050BDF8FA
:1051F0000010ADF80010BDF800102180ADF800805F
:10520000BDF80010ADF80010BDF800102180ADF819
:105210000050BDF80010ADF80010BDF8001021805E
:10522000E921ADF80010BDF80010ADF80010BDF890
:1052300000103180ADF80000BDF80010ADF800108E
:10524000BDF800102180ADF80050BDF80010ADF899
:105250000010BDF800102180ADF80050BDF800101E
:10526000ADF80010BDF800102180ADF80050BDF879
:105270000010ADF80010BDF800102180ADF800500E
:10528000BDF80010ADF80010BDF800103180ADF889
:105290000000BDF80000ADF80000BDF8000020805F
:1052A000CF20ADF80000BDF80000ADF80000BDF85B
:1052B00000003080ADF80050BDF80000ADF80000EF
:1052C000BDF800002080ADF80050BDF80000ADF83A
:1052D0000000BDF800002080ADF80050BDF80000CF
:1052E000ADF80000BDF800002080ADF80050BDF81A
:1052F0000000ADF80000BDF800002080ADF80050BF
:10530000BDF80000ADF80000BDF800002080ADF849
:105310000050BDF80000ADF80000BDF8000020808E
:10532000ADF80050BDF80000ADF80000BDF8000079
:105330002080ADF80050BDF80000ADF80000BDF8C9
:1053400000002080ADF80050BDF80000ADF800006E
:10535000BDF800002080ADF80050BDF80000ADF8A9
:105360000000BDF800002080ADF80050BDF800003E
:10537000ADF80000BDF800002080ADF80050BDF889
:105380000000ADF80000BDF800002080ADF800502E
:10539000BDF80000ADF80000BDF800002080ADF8B9
:1053A0000050BDF80000ADF80000BDF800002080FE
:1053B000ADF80050BDF80000ADF80000BDF80000E9
:1053C0002080ADF80050BDF80000ADF80000BDF839
:1053D00000002080ADF80050BDF80000ADF80000DE
:1053E000BDF800002080F020ADF80000BDF80000FE
:1053F000ADF80000BDF800003080ADF80050BDF8F9
:105400000000ADF80000BDF8000020805020ADF88D
:105410000000BDF80000ADF80000BDF800002080DD
:10542000ADF80050BDF80000ADF80000BDF8000078
:105430002080ADF80050BDF80000ADF80000BDF8C8
:1054400000002080ADF80050BDF80000ADF800006D
:10545000BDF800002080F320ADF80000BDF800008A
:10546000ADF80000BDF800003080ADF80050BDF888
:105470000000ADF80000BDF800002080F920ADF874
:105480000000BDF80000ADF80000BDF8000030805D
:105490000620ADF80000BDF80000ADF80000BDF832
:1054A000000020801020ADF80000BDF80000ADF82D
:1054B0000000BDF8000020804FF02909ADF80090F1
:1054C000BDF80000ADF80000BDF800002080ADF888
:1054D0000050BDF80000ADF80000BDF800002080CD
:1054E0003A20ADF80000BDF80000ADF80000BDF8AE
:1054F00000003080ADF80080BDF80000ADF800007D
:10550000BDF8000020801120ADF80000BDF80000BB
:10551000ADF80000BDF800003080642003F05CFEB0
:10552000ADF80090BDF80000ADF80000BDF8000037
:1055300030803520ADF80000BDF80000ADF8000067
:10554000BDF800003080ADF80050BDF80000ADF8A7
:105550000000BDF8000020805120ADF80000BDF82B
:105560000000ADF80000BDF800003080FF20ADF86D
:105570000000BDF80000ADF80000BDF8000020807C
:105580005320ADF80000BDF80000ADF80000BDF8F4
:10559000000030802C20ADF80000BDF80010ADF800
:1055A0000010BDF800102180ADF80080BDF800109B
:1055B000ADF80010BDF8001031808221ADF8001068
:1055C000BDF80010ADF80010BDF800102180ADF856
:1055D0000000BDF80000ADF80000BDF8000030800C
:1055E000354D47F28972A888A0F5EE41963918BF6B
:1055F000904241D0A0F5A64110391CBFA0F5A041B2
:10560000B1F5A26138D00020A8712C2028812A2071
:1056100068812B20A8814FF4A07028804FF4F0708F
:105620006880002000F04CF82448C0F8B072288848
:1056300069884FF6FF7801FB00F70021084600F06B
:10564000F3F828893080002F04BF15B0BDE8F08F33
:1056500017F0010018BFA4F80080B84224BF15B0AD
:10566000BDE8F08FA4F80080A4F80080801CB84248
:10567000F8D315B0BDE8F08F4FF02041D1F80431D8
:1056800023F00F03C1F80431D1F8043123F470631F
:10569000C1F80431D1F8043143F00303C1F80431F7
:1056A0009042D1F804010CBF40F4806040F40070D7
:1056B000C1F80401A7E70000200400200080414257
:1056C000574A18B493790021012B07D1082805D235
:1056D000DFE800F0161812140C19100E082812D268
:1056E000DFE800F0110406080A0C0E1080210AE021
:1056F000402108E0C02106E0202104E0602102E012
:10570000A02100E0E0219388A3F5AA4010380CBF47
:105710004FF458503620A3F5EC4CBCF5CB7C08BFB9
:1057200041F00801DFF8FCC0ACF800000CF1020009
:10573000018011F0200F3A494B88098802D08B4232
:1057400004D901E0994201D9138051805189ADF803
:105750000010BDF80010ADF80010BDF80010ACF856
:1057600000100021ADF80010BDF80030ADF8003099
:10577000BDF800300380ADF80010BDF80030ADF882
:105780000030BDF80030038013885B1E1C0AADF8A2
:105790000040BDF80040ADF80040BDF80040048076
:1057A000DBB2ADF80030BDF80030ADF80030BDF828
:1057B000003003809389ADF80030BDF80030ADF8BB
:1057C0000030BDF80030ACF80030ADF80010BDF886
:1057D0000030ADF80030BDF800300380ADF80010A7
:1057E000BDF80010ADF80010BDF800100180518820
:1057F000491E0A0AADF80020BDF80020ADF80020CF
:10580000BDF800200280C9B2ADF80010BDF800104C
:10581000ADF80010BDF80010018018BC7047000002
:1058200020040020FEFF076018B4224B5A89ADF80F
:105830000020BDF80020ADF80020BDF80020DFF802
:1058400078C0ACF80020020AADF80020BDF80020B6
:10585000ADF80020BDF800400CF102021480C0B287
:10586000ADF80000BDF80000ADF80000BDF8000084
:1058700010809889ADF80000BDF80000ADF8000078
:10588000BDF80000ACF80000080AADF80000BDF853
:105890000000ADF80000BDF800001080C8B2ADF8FF
:1058A0000000BDF80000ADF80000BDF80000108059
:1058B00018BC704720040020FEFF0760FEE7704719
:1058C0007047000030B5DFF8A4C093B00025DCF8C5
:1058D000004044F08054CCF80040DCF800C00CF0EC
:1058E000805CCDF844C0DFF888C0DCF8004044F4A8
:1058F0008044CCF80040DCF800C002240CF4804C5A
:10590000CDF844C04FF0010CCDF800C04FF4803CFE
:10591000CDF804C04FF4800CCDE90810CDE90A237E
:10592000CDE9064C6846FBF753FD00B1FEE70F20BA
:10593000CDE90C044FF4A050CDE90E504FF4805047
:10594000109005210CA8FBF7FDFB00B1FEE7FBF76B
:1059500069FB41F2010188421CBF13B030BD05480C
:10596000016841F48071016013B030BD40380240DD
:1059700000700040003C02407047FBF75FBB000036
:105980000248016841F470010160704788ED00E051
:105990000148FBF7ECBF00007803002070B5144C01
:1059A000124A00252260012222766160C4E9025079
:1059B00020462561FBF794FF84F839502046FCF718
:1059C000A9F904F13C006021C0E900150146856099
:1059D00000223C38FCF782F800212046FCF7E1F970
:1059E0002046BDE87040FBF7B5BF0000000800404E
:1059F00078030020F0B402682A4B2B4C2B4D2C4E20
:105A0000DFF8B0C0984218BFB0F1804F07D0A04275
:105A100018BFA84203D0B04218BF604504D14F68F8
:105A200022F0700247EA0202984218BFB0F1804F9C
:105A300025D0A04218BFA84221D0B04218BF60456F
:105A40001DD0A0F18044B4F5A0341CBFA0F1804467
:105A5000B4F5A23413D0A0F18044B4F5A4341CBF33
:105A6000A0F18044B4F5C05409D0A0F18044B4F54D
:105A7000E0541CBFA0F18044B4F5005403D1CC68BD
:105A800022F44072224302608A68C2620A6882621B
:105A9000984212BF6045096901634FF001014161FD
:105AA000F0BC7047000001400004004000080040C6
:105AB000000C0040000401400149086070470000EC
:105AC0003408004010B5806B0021C185C184FCF70B
:105AD00094F910BD2DE9F041044600680169E268BF
